{
  "contractName": "Error",
  "abi": [
    {
      "inputs": [
        {
          "internalType": "uint256",
          "name": "balance",
          "type": "uint256"
        },
        {
          "internalType": "uint256",
          "name": "withdrawAmount",
          "type": "uint256"
        }
      ],
      "name": "InsufficientBalance",
      "type": "error"
    },
    {
      "stateMutability": "payable",
      "type": "fallback",
      "payable": true
    },
    {
      "inputs": [],
      "name": "number",
      "outputs": [
        {
          "internalType": "uint256",
          "name": "",
          "type": "uint256"
        }
      ],
      "stateMutability": "view",
      "type": "function",
      "constant": true
    },
    {
      "stateMutability": "payable",
      "type": "receive",
      "payable": true
    },
    {
      "inputs": [
        {
          "internalType": "uint256",
          "name": "_i",
          "type": "uint256"
        }
      ],
      "name": "testReqiure",
      "outputs": [],
      "stateMutability": "pure",
      "type": "function",
      "constant": true
    },
    {
      "inputs": [
        {
          "internalType": "uint256",
          "name": "_i",
          "type": "uint256"
        }
      ],
      "name": "testRevert",
      "outputs": [],
      "stateMutability": "pure",
      "type": "function",
      "constant": true
    },
    {
      "inputs": [],
      "name": "testAssert",
      "outputs": [],
      "stateMutability": "view",
      "type": "function",
      "constant": true
    },
    {
      "inputs": [
        {
          "internalType": "uint256",
          "name": "_withdraw",
          "type": "uint256"
        }
      ],
      "name": "testCustomError",
      "outputs": [],
      "stateMutability": "view",
      "type": "function",
      "constant": true
    }
  ],
  "bytecode": "0x608060405234801561001057600080fd5b506103be806100206000396000f3fe60806040526004361061004e5760003560e01c806320987767146100575780632b813bc0146100805780636eda3ab61461009757806375f7286c146100c05780638381f58a146100e957610055565b3661005557005b005b34801561006357600080fd5b5061007e6004803603810190610079919061025c565b610114565b005b34801561008c57600080fd5b5061009561015a565b005b3480156100a357600080fd5b506100be60048036038101906100b9919061025c565b61016e565b005b3480156100cc57600080fd5b506100e760048036038101906100e2919061025c565b6101b4565b005b3480156100f557600080fd5b506100fe61021b565b60405161010b9190610298565b60405180910390f35b600a8111610157576040517f08c379a000000000000000000000000000000000000000000000000000000000815260040161014e90610310565b60405180910390fd5b50565b600080541461016c5761016b610330565b5b565b600a81116101b1576040517f08c379a00000000000000000000000000000000000000000000000000000000081526004016101a890610310565b60405180910390fd5b50565b60003073ffffffffffffffffffffffffffffffffffffffff16319050818110156102175780826040517fcf47918100000000000000000000000000000000000000000000000000000000815260040161020e92919061035f565b60405180910390fd5b5050565b60005481565b600080fd5b6000819050919050565b61023981610226565b811461024457600080fd5b50565b60008135905061025681610230565b92915050565b60006020828403121561027257610271610221565b5b600061028084828501610247565b91505092915050565b61029281610226565b82525050565b60006020820190506102ad6000830184610289565b92915050565b600082825260208201905092915050565b7f617267206d7573742062652067726561746572207468616e2031300000000000600082015250565b60006102fa601b836102b3565b9150610305826102c4565b602082019050919050565b60006020820190508181036000830152610329816102ed565b9050919050565b7f4e487b7100000000000000000000000000000000000000000000000000000000600052600160045260246000fd5b60006040820190506103746000830185610289565b6103816020830184610289565b939250505056fea26469706673582212203c4240b79bb5b1156c4c96dd210e1eb3cd900a4cef646ba4e6c337c52bc7909064736f6c63430008110033",
  "immutableReferences": {},
  "source": "// SPDX-License-Identifier: MIT\npragma solidity ^0.8.0;\n\n//pragma solidity >=0.4.22 <0.9.0;\n\ncontract Error {\n    uint256 public number;\n    error InsufficientBalance(uint256 balance, uint256 withdrawAmount);\n\n    function testReqiure(uint256 _i) public pure {\n        require(_i > 10, \"arg must be greater than 10\");\n    }\n\n    function testRevert(uint256 _i) public pure {\n        if (_i <= 10) {\n            revert(\"arg must be greater than 10\");\n        }\n    }\n\n    function testAssert() public view {\n        // Assert\n        // \n\n        // num0\n        // num\n\n        assert(number == 0);\n    }\n\n    function testCustomError(uint256 _withdraw) public view {\n        //https://github.com/trufflesuite/ganache/issues/1331\n        //uint256 balance = address(this).balance;\n        uint256 balance = payable(address(this)).balance;\n        if (balance < _withdraw) {\n            revert InsufficientBalance(balance, _withdraw);\n        }\n    }\n\n    receive() external payable {}\n\n    fallback() external payable {}\n}\n",
  "sourcePath": "/Users/zhouyinhui/Documents/github/SolidityByExample/06_Error/contracts/Error.sol",
  "compiler": {
    "name": "solc",
    "version": "0.8.17+commit.8df45f5f.Emscripten.clang"
  },
  "schemaVersion": "3.4.11",
  "updatedAt": "2022-12-30T03:32:08.099Z",
  "networkType": "ethereum",
  "devdoc": {
    "kind": "dev",
    "methods": {},
    "version": 1
  },
  "userdoc": {
    "kind": "user",
    "methods": {},
    "version": 1
  }
}